{"abi":[{"type":"constructor","inputs":[],"stateMutability":"nonpayable"},{"type":"function","name":"assignTag","inputs":[{"name":"recipient","type":"address","internalType":"address"},{"name":"tagId","type":"uint256","internalType":"uint256"}],"outputs":[],"stateMutability":"nonpayable"},{"type":"function","name":"balanceOf","inputs":[{"name":"account","type":"address","internalType":"address"},{"name":"id","type":"uint256","internalType":"uint256"}],"outputs":[{"name":"","type":"uint256","internalType":"uint256"}],"stateMutability":"view"},{"type":"function","name":"balanceOfBatch","inputs":[{"name":"accounts","type":"address[]","internalType":"address[]"},{"name":"ids","type":"uint256[]","internalType":"uint256[]"}],"outputs":[{"name":"","type":"uint256[]","internalType":"uint256[]"}],"stateMutability":"view"},{"type":"function","name":"invalidateTag","inputs":[{"name":"recipient","type":"address","internalType":"address"},{"name":"tagId","type":"uint256","internalType":"uint256"}],"outputs":[],"stateMutability":"nonpayable"},{"type":"function","name":"isApprovedForAll","inputs":[{"name":"account","type":"address","internalType":"address"},{"name":"operator","type":"address","internalType":"address"}],"outputs":[{"name":"","type":"bool","internalType":"bool"}],"stateMutability":"view"},{"type":"function","name":"owner","inputs":[],"outputs":[{"name":"","type":"address","internalType":"address"}],"stateMutability":"view"},{"type":"function","name":"registerTagTypes","inputs":[{"name":"identifiers","type":"uint256[]","internalType":"uint256[]"},{"name":"labels","type":"bytes32[]","internalType":"bytes32[]"}],"outputs":[],"stateMutability":"nonpayable"},{"type":"function","name":"renounceOwnership","inputs":[],"outputs":[],"stateMutability":"nonpayable"},{"type":"function","name":"safeBatchTransferFrom","inputs":[{"name":"from","type":"address","internalType":"address"},{"name":"to","type":"address","internalType":"address"},{"name":"ids","type":"uint256[]","internalType":"uint256[]"},{"name":"amounts","type":"uint256[]","internalType":"uint256[]"},{"name":"data","type":"bytes","internalType":"bytes"}],"outputs":[],"stateMutability":"nonpayable"},{"type":"function","name":"safeTransferFrom","inputs":[{"name":"from","type":"address","internalType":"address"},{"name":"to","type":"address","internalType":"address"},{"name":"id","type":"uint256","internalType":"uint256"},{"name":"amount","type":"uint256","internalType":"uint256"},{"name":"data","type":"bytes","internalType":"bytes"}],"outputs":[],"stateMutability":"nonpayable"},{"type":"function","name":"setApprovalForAll","inputs":[{"name":"operator","type":"address","internalType":"address"},{"name":"approved","type":"bool","internalType":"bool"}],"outputs":[],"stateMutability":"nonpayable"},{"type":"function","name":"supportsInterface","inputs":[{"name":"interfaceId","type":"bytes4","internalType":"bytes4"}],"outputs":[{"name":"","type":"bool","internalType":"bool"}],"stateMutability":"view"},{"type":"function","name":"transferOwnership","inputs":[{"name":"newOwner","type":"address","internalType":"address"}],"outputs":[],"stateMutability":"nonpayable"},{"type":"function","name":"uri","inputs":[{"name":"","type":"uint256","internalType":"uint256"}],"outputs":[{"name":"","type":"string","internalType":"string"}],"stateMutability":"view"},{"type":"event","name":"ApprovalForAll","inputs":[{"name":"account","type":"address","indexed":true,"internalType":"address"},{"name":"operator","type":"address","indexed":true,"internalType":"address"},{"name":"approved","type":"bool","indexed":false,"internalType":"bool"}],"anonymous":false},{"type":"event","name":"OwnershipTransferred","inputs":[{"name":"previousOwner","type":"address","indexed":true,"internalType":"address"},{"name":"newOwner","type":"address","indexed":true,"internalType":"address"}],"anonymous":false},{"type":"event","name":"TransferBatch","inputs":[{"name":"operator","type":"address","indexed":true,"internalType":"address"},{"name":"from","type":"address","indexed":true,"internalType":"address"},{"name":"to","type":"address","indexed":true,"internalType":"address"},{"name":"ids","type":"uint256[]","indexed":false,"internalType":"uint256[]"},{"name":"values","type":"uint256[]","indexed":false,"internalType":"uint256[]"}],"anonymous":false},{"type":"event","name":"TransferSingle","inputs":[{"name":"operator","type":"address","indexed":true,"internalType":"address"},{"name":"from","type":"address","indexed":true,"internalType":"address"},{"name":"to","type":"address","indexed":true,"internalType":"address"},{"name":"id","type":"uint256","indexed":false,"internalType":"uint256"},{"name":"value","type":"uint256","indexed":false,"internalType":"uint256"}],"anonymous":false},{"type":"event","name":"URI","inputs":[{"name":"value","type":"string","indexed":false,"internalType":"string"},{"name":"id","type":"uint256","indexed":true,"internalType":"uint256"}],"anonymous":false},{"type":"error","name":"ERC1155InsufficientBalance","inputs":[{"name":"sender","type":"address","internalType":"address"},{"name":"balance","type":"uint256","internalType":"uint256"},{"name":"needed","type":"uint256","internalType":"uint256"},{"name":"tokenId","type":"uint256","internalType":"uint256"}]},{"type":"error","name":"ERC1155InvalidApprover","inputs":[{"name":"approver","type":"address","internalType":"address"}]},{"type":"error","name":"ERC1155InvalidArrayLength","inputs":[{"name":"idsLength","type":"uint256","internalType":"uint256"},{"name":"valuesLength","type":"uint256","internalType":"uint256"}]},{"type":"error","name":"ERC1155InvalidOperator","inputs":[{"name":"operator","type":"address","internalType":"address"}]},{"type":"error","name":"ERC1155InvalidReceiver","inputs":[{"name":"receiver","type":"address","internalType":"address"}]},{"type":"error","name":"ERC1155InvalidSender","inputs":[{"name":"sender","type":"address","internalType":"address"}]},{"type":"error","name":"ERC1155MissingApprovalForAll","inputs":[{"name":"operator","type":"address","internalType":"address"},{"name":"owner","type":"address","internalType":"address"}]},{"type":"error","name":"OwnableInvalidOwner","inputs":[{"name":"owner","type":"address","internalType":"address"}]},{"type":"error","name":"OwnableUnauthorizedAccount","inputs":[{"name":"account","type":"address","internalType":"address"}]},{"type":"error","name":"ReentrancyGuardReentrantCall","inputs":[]}],"bytecode":{"object":"0x608060405234801561000f575f5ffd5b50336040518060400160405280600881526020017f4964656e74697479000000000000000000000000000000000000000000000000815250610056816100e460201b60201c565b5060016003819055505f73ffffffffffffffffffffffffffffffffffffffff168173ffffffffffffffffffffffffffffffffffffffff16036100cf575f6040517f1e4fbdf70000000000000000000000000000000000000000000000000000000081526004016100c691906101f9565b60405180910390fd5b6100de816100f760201b60201c565b5061051e565b80600290816100f3919061044f565b5050565b5f60045f9054906101000a900473ffffffffffffffffffffffffffffffffffffffff1690508160045f6101000a81548173ffffffffffffffffffffffffffffffffffffffff021916908373ffffffffffffffffffffffffffffffffffffffff1602179055508173ffffffffffffffffffffffffffffffffffffffff168173ffffffffffffffffffffffffffffffffffffffff167f8be0079c531659141344cd1fd0a4f28419497f9722a3daafe3b4186f6b6457e060405160405180910390a35050565b5f73ffffffffffffffffffffffffffffffffffffffff82169050919050565b5f6101e3826101ba565b9050919050565b6101f3816101d9565b82525050565b5f60208201905061020c5f8301846101ea565b92915050565b5f81519050919050565b7f4e487b71000000000000000000000000000000000000000000000000000000005f52604160045260245ffd5b7f4e487b71000000000000000000000000000000000000000000000000000000005f52602260045260245ffd5b5f600282049050600182168061028d57607f821691505b6020821081036102a05761029f610249565b5b50919050565b5f819050815f5260205f209050919050565b5f6020601f8301049050919050565b5f82821b905092915050565b5f600883026103027fffffffffffffffffffffffffffffffffffffffffffffffffffffffffffffffff826102c7565b61030c86836102c7565b95508019841693508086168417925050509392505050565b5f819050919050565b5f819050919050565b5f61035061034b61034684610324565b61032d565b610324565b9050919050565b5f819050919050565b61036983610336565b61037d61037582610357565b8484546102d3565b825550505050565b5f5f905090565b610394610385565b61039f818484610360565b505050565b5b818110156103c2576103b75f8261038c565b6001810190506103a5565b5050565b601f821115610407576103d8816102a6565b6103e1846102b8565b810160208510156103f0578190505b6104046103fc856102b8565b8301826103a4565b50505b505050565b5f82821c905092915050565b5f6104275f198460080261040c565b1980831691505092915050565b5f61043f8383610418565b9150826002028217905092915050565b61045882610212565b67ffffffffffffffff8111156104715761047061021c565b5b61047b8254610276565b6104868282856103c6565b5f60209050601f8311600181146104b7575f84156104a5578287015190505b6104af8582610434565b865550610516565b601f1984166104c5866102a6565b5f5b828110156104ec578489015182556001820191506020850194506020810190506104c7565b868310156105095784890151610505601f891682610418565b8355505b6001600288020188555050505b505050505050565b6126878061052b5f395ff3fe608060405234801561000f575f5ffd5b50600436106100e7575f3560e01c8063715018a61161008a578063a22cb46511610064578063a22cb46514610243578063e985e9c51461025f578063f242432a1461028f578063f2fde38b146102ab576100e7565b8063715018a6146101ff5780637672578c146102095780638da5cb5b14610225576100e7565b80632eb2c2d6116100c65780632eb2c2d61461017b5780634653731314610197578063481124a6146101b35780634e1273f4146101cf576100e7565b8062fdd58e146100eb57806301ffc9a71461011b5780630e89341c1461014b575b5f5ffd5b6101056004803603810190610100919061181d565b6102c7565b604051610112919061186a565b60405180910390f35b610135600480360381019061013091906118d8565b61031c565b604051610142919061191d565b60405180910390f35b61016560048036038101906101609190611936565b6103fd565b60405161017291906119d1565b60405180910390f35b61019560048036038101906101909190611be1565b61048f565b005b6101b160048036038101906101ac9190611d5a565b6104d6565b005b6101cd60048036038101906101c8919061181d565b61054d565b005b6101e960048036038101906101e49190611e98565b6106b4565b6040516101f69190611fc5565b60405180910390f35b6102076107be565b005b610223600480360381019061021e919061181d565b6107d1565b005b61022d61094b565b60405161023a9190611ff4565b60405180910390f35b61025d60048036038101906102589190612037565b610973565b005b61027960048036038101906102749190612075565b610989565b604051610286919061191d565b60405180910390f35b6102a960048036038101906102a491906120b3565b610a17565b005b6102c560048036038101906102c09190612146565b610a5e565b005b5f5f5f8381526020019081526020015f205f8473ffffffffffffffffffffffffffffffffffffffff1673ffffffffffffffffffffffffffffffffffffffff1681526020019081526020015f2054905092915050565b5f7fd9b67a26000000000000000000000000000000000000000000000000000000007bffffffffffffffffffffffffffffffffffffffffffffffffffffffff1916827bffffffffffffffffffffffffffffffffffffffffffffffffffffffff191614806103e657507f0e89341c000000000000000000000000000000000000000000000000000000007bffffffffffffffffffffffffffffffffffffffffffffffffffffffff1916827bffffffffffffffffffffffffffffffffffffffffffffffffffffffff1916145b806103f657506103f582610ae2565b5b9050919050565b60606002805461040c9061219e565b80601f01602080910402602001604051908101604052809291908181526020018280546104389061219e565b80156104835780601f1061045a57610100808354040283529160200191610483565b820191905f5260205f20905b81548152906001019060200180831161046657829003601f168201915b50505050509050919050565b5f6104cf576040517f08c379a00000000000000000000000000000000000000000000000000000000081526004016104c690612218565b60405180910390fd5b5050505050565b6104de610b4b565b5f8484905090505f5f90505b818110156105455783838281811061050557610504612236565b5b9050602002013560065f88888581811061052257610521612236565b5b9050602002013581526020019081526020015f20819055508060010190506104ea565b505050505050565b610555610bd2565b5f60055f3373ffffffffffffffffffffffffffffffffffffffff1673ffffffffffffffffffffffffffffffffffffffff1681526020019081526020015f205f8473ffffffffffffffffffffffffffffffffffffffff1673ffffffffffffffffffffffffffffffffffffffff1681526020019081526020015f205f8381526020019081526020015f209050805f015f9054906101000a900460ff1661062e576040517f08c379a0000000000000000000000000000000000000000000000000000000008152600401610625906122ad565b60405180910390fd5b805f0160019054906101000a900460ff161561067f576040517f08c379a000000000000000000000000000000000000000000000000000000000815260040161067690612315565b60405180910390fd5b61068b83836001610c18565b6001815f0160016101000a81548160ff021916908315150217905550506106b0610cba565b5050565b6060815183511461070057815183516040517f5b0599910000000000000000000000000000000000000000000000000000000081526004016106f7929190612333565b60405180910390fd5b5f835167ffffffffffffffff81111561071c5761071b6119f5565b5b60405190808252806020026020018201604052801561074a5781602001602082028036833780820191505090505b5090505f5f90505b84518110156107b3576107896107718287610cc490919063ffffffff16565b6107848387610cd790919063ffffffff16565b6102c7565b82828151811061079c5761079b612236565b5b602002602001018181525050806001019050610752565b508091505092915050565b6107c6610b4b565b6107cf5f610cea565b565b6107d9610bd2565b5f60055f3373ffffffffffffffffffffffffffffffffffffffff1673ffffffffffffffffffffffffffffffffffffffff1681526020019081526020015f205f8473ffffffffffffffffffffffffffffffffffffffff1673ffffffffffffffffffffffffffffffffffffffff1681526020019081526020015f205f8381526020019081526020015f209050805f015f9054906101000a900460ff16156108b3576040517f08c379a00000000000000000000000000000000000000000000000000000000081526004016108aa906123a4565b60405180910390fd5b5f5f1b60065f8481526020019081526020015f205403610908576040517f08c379a00000000000000000000000000000000000000000000000000000000081526004016108ff9061240c565b60405180910390fd5b6109238383600160405180602001604052805f815250610dad565b6001815f015f6101000a81548160ff02191690831515021790555050610947610cba565b5050565b5f60045f9054906101000a900473ffffffffffffffffffffffffffffffffffffffff16905090565b61098561097e610e42565b8383610e49565b5050565b5f60015f8473ffffffffffffffffffffffffffffffffffffffff1673ffffffffffffffffffffffffffffffffffffffff1681526020019081526020015f205f8373ffffffffffffffffffffffffffffffffffffffff1673ffffffffffffffffffffffffffffffffffffffff1681526020019081526020015f205f9054906101000a900460ff16905092915050565b5f610a57576040517f08c379a0000000000000000000000000000000000000000000000000000000008152600401610a4e90612218565b60405180910390fd5b5050505050565b610a66610b4b565b5f73ffffffffffffffffffffffffffffffffffffffff168173ffffffffffffffffffffffffffffffffffffffff1603610ad6575f6040517f1e4fbdf7000000000000000000000000000000000000000000000000000000008152600401610acd9190611ff4565b60405180910390fd5b610adf81610cea565b50565b5f7f01ffc9a7000000000000000000000000000000000000000000000000000000007bffffffffffffffffffffffffffffffffffffffffffffffffffffffff1916827bffffffffffffffffffffffffffffffffffffffffffffffffffffffff1916149050919050565b610b53610e42565b73ffffffffffffffffffffffffffffffffffffffff16610b7161094b565b73ffffffffffffffffffffffffffffffffffffffff1614610bd057610b94610e42565b6040517f118cdaa7000000000000000000000000000000000000000000000000000000008152600401610bc79190611ff4565b60405180910390fd5b565b600260035403610c0e576040517f3ee5aeb500000000000000000000000000000000000000000000000000000000815260040160405180910390fd5b6002600381905550565b5f73ffffffffffffffffffffffffffffffffffffffff168373ffffffffffffffffffffffffffffffffffffffff1603610c88575f6040517f01a83514000000000000000000000000000000000000000000000000000000008152600401610c7f9190611ff4565b60405180910390fd5b5f5f610c948484610fb2565b91509150610cb3855f848460405180602001604052805f815250610fe2565b5050505050565b6001600381905550565b5f60208202602084010151905092915050565b5f60208202602084010151905092915050565b5f60045f9054906101000a900473ffffffffffffffffffffffffffffffffffffffff1690508160045f6101000a81548173ffffffffffffffffffffffffffffffffffffffff021916908373ffffffffffffffffffffffffffffffffffffffff1602179055508173ffffffffffffffffffffffffffffffffffffffff168173ffffffffffffffffffffffffffffffffffffffff167f8be0079c531659141344cd1fd0a4f28419497f9722a3daafe3b4186f6b6457e060405160405180910390a35050565b5f73ffffffffffffffffffffffffffffffffffffffff168473ffffffffffffffffffffffffffffffffffffffff1603610e1d575f6040517f57f447ce000000000000000000000000000000000000000000000000000000008152600401610e149190611ff4565b60405180910390fd5b5f5f610e298585610fb2565b91509150610e3a5f87848487610fe2565b505050505050565b5f33905090565b5f73ffffffffffffffffffffffffffffffffffffffff168273ffffffffffffffffffffffffffffffffffffffff1603610eb9575f6040517fced3e100000000000000000000000000000000000000000000000000000000008152600401610eb09190611ff4565b60405180910390fd5b8060015f8573ffffffffffffffffffffffffffffffffffffffff1673ffffffffffffffffffffffffffffffffffffffff1681526020019081526020015f205f8473ffffffffffffffffffffffffffffffffffffffff1673ffffffffffffffffffffffffffffffffffffffff1681526020019081526020015f205f6101000a81548160ff0219169083151502179055508173ffffffffffffffffffffffffffffffffffffffff168373ffffffffffffffffffffffffffffffffffffffff167f17307eab39ab6107e8899845ad3d59bd9653f200f220920489ca2b5937696c3183604051610fa5919061191d565b60405180910390a3505050565b60608060405191506001825283602083015260408201905060018152826020820152604081016040529250929050565b610fee8585858561108e565b5f73ffffffffffffffffffffffffffffffffffffffff168473ffffffffffffffffffffffffffffffffffffffff1614611087575f61102a610e42565b90506001845103611076575f6110495f86610cd790919063ffffffff16565b90505f61105f5f86610cd790919063ffffffff16565b905061106f838989858589611421565b5050611085565b6110848187878787876115d0565b5b505b5050505050565b80518251146110d857815181516040517f5b0599910000000000000000000000000000000000000000000000000000000081526004016110cf929190612333565b60405180910390fd5b5f6110e1610e42565b90505f5f90505b83518110156112e0575f6111058286610cd790919063ffffffff16565b90505f61111b8386610cd790919063ffffffff16565b90505f73ffffffffffffffffffffffffffffffffffffffff168873ffffffffffffffffffffffffffffffffffffffff161461123e575f5f5f8481526020019081526020015f205f8a73ffffffffffffffffffffffffffffffffffffffff1673ffffffffffffffffffffffffffffffffffffffff1681526020019081526020015f20549050818110156111ea57888183856040517f03dee4c50000000000000000000000000000000000000000000000000000000081526004016111e1949392919061242a565b60405180910390fd5b8181035f5f8581526020019081526020015f205f8b73ffffffffffffffffffffffffffffffffffffffff1673ffffffffffffffffffffffffffffffffffffffff1681526020019081526020015f2081905550505b5f73ffffffffffffffffffffffffffffffffffffffff168773ffffffffffffffffffffffffffffffffffffffff16146112d357805f5f8481526020019081526020015f205f8973ffffffffffffffffffffffffffffffffffffffff1673ffffffffffffffffffffffffffffffffffffffff1681526020019081526020015f205f8282546112cb919061249a565b925050819055505b50508060010190506110e8565b50600183510361139b575f6112fe5f85610cd790919063ffffffff16565b90505f6113145f85610cd790919063ffffffff16565b90508573ffffffffffffffffffffffffffffffffffffffff168773ffffffffffffffffffffffffffffffffffffffff168473ffffffffffffffffffffffffffffffffffffffff167fc3d58168c5ae7397731d063d5bbf3d657854427343f4c083240f7aacaa2d0f62858560405161138c929190612333565b60405180910390a4505061141a565b8373ffffffffffffffffffffffffffffffffffffffff168573ffffffffffffffffffffffffffffffffffffffff168273ffffffffffffffffffffffffffffffffffffffff167f4a39dc06d4c0dbc64b70af90fd698a233a518aa5d07e595d983b8c0526c8f7fb86866040516114119291906124cd565b60405180910390a45b5050505050565b5f8473ffffffffffffffffffffffffffffffffffffffff163b11156115c8578373ffffffffffffffffffffffffffffffffffffffff1663f23a6e6187878686866040518663ffffffff1660e01b8152600401611481959493929190612554565b6020604051808303815f875af19250505080156114bc57506040513d601f19601f820116820180604052508101906114b991906125c0565b60015b61153d573d805f81146114ea576040519150601f19603f3d011682016040523d82523d5f602084013e6114ef565b606091505b505f81510361153557846040517f57f447ce00000000000000000000000000000000000000000000000000000000815260040161152c9190611ff4565b60405180910390fd5b805181602001fd5b63f23a6e6160e01b7bffffffffffffffffffffffffffffffffffffffffffffffffffffffff1916817bffffffffffffffffffffffffffffffffffffffffffffffffffffffff1916146115c657846040517f57f447ce0000000000000000000000000000000000000000000000000000000081526004016115bd9190611ff4565b60405180910390fd5b505b505050505050565b5f8473ffffffffffffffffffffffffffffffffffffffff163b1115611777578373ffffffffffffffffffffffffffffffffffffffff1663bc197c8187878686866040518663ffffffff1660e01b81526004016116309594939291906125eb565b6020604051808303815f875af192505050801561166b57506040513d601f19601f8201168201806040525081019061166891906125c0565b60015b6116ec573d805f8114611699576040519150601f19603f3d011682016040523d82523d5f602084013e61169e565b606091505b505f8151036116e457846040517f57f447ce0000000000000000000000000000000000000000000000000000000081526004016116db9190611ff4565b60405180910390fd5b805181602001fd5b63bc197c8160e01b7bffffffffffffffffffffffffffffffffffffffffffffffffffffffff1916817bffffffffffffffffffffffffffffffffffffffffffffffffffffffff19161461177557846040517f57f447ce00000000000000000000000000000000000000000000000000000000815260040161176c9190611ff4565b60405180910390fd5b505b505050505050565b5f604051905090565b5f5ffd5b5f5ffd5b5f73ffffffffffffffffffffffffffffffffffffffff82169050919050565b5f6117b982611790565b9050919050565b6117c9816117af565b81146117d3575f5ffd5b50565b5f813590506117e4816117c0565b92915050565b5f819050919050565b6117fc816117ea565b8114611806575f5ffd5b50565b5f81359050611817816117f3565b92915050565b5f5f6040838503121561183357611832611788565b5b5f611840858286016117d6565b925050602061185185828601611809565b9150509250929050565b611864816117ea565b82525050565b5f60208201905061187d5f83018461185b565b92915050565b5f7fffffffff0000000000000000000000000000000000000000000000000000000082169050919050565b6118b781611883565b81146118c1575f5ffd5b50565b5f813590506118d2816118ae565b92915050565b5f602082840312156118ed576118ec611788565b5b5f6118fa848285016118c4565b91505092915050565b5f8115159050919050565b61191781611903565b82525050565b5f6020820190506119305f83018461190e565b92915050565b5f6020828403121561194b5761194a611788565b5b5f61195884828501611809565b91505092915050565b5f81519050919050565b5f82825260208201905092915050565b8281835e5f83830152505050565b5f601f19601f8301169050919050565b5f6119a382611961565b6119ad818561196b565b93506119bd81856020860161197b565b6119c681611989565b840191505092915050565b5f6020820190508181035f8301526119e98184611999565b905092915050565b5f5ffd5b7f4e487b71000000000000000000000000000000000000000000000000000000005f52604160045260245ffd5b611a2b82611989565b810181811067ffffffffffffffff82111715611a4a57611a496119f5565b5b80604052505050565b5f611a5c61177f565b9050611a688282611a22565b919050565b5f67ffffffffffffffff821115611a8757611a866119f5565b5b602082029050602081019050919050565b5f5ffd5b5f611aae611aa984611a6d565b611a53565b90508083825260208201905060208402830185811115611ad157611ad0611a98565b5b835b81811015611afa5780611ae68882611809565b845260208401935050602081019050611ad3565b5050509392505050565b5f82601f830112611b1857611b176119f1565b5b8135611b28848260208601611a9c565b91505092915050565b5f5ffd5b5f67ffffffffffffffff821115611b4f57611b4e6119f5565b5b611b5882611989565b9050602081019050919050565b828183375f83830152505050565b5f611b85611b8084611b35565b611a53565b905082815260208101848484011115611ba157611ba0611b31565b5b611bac848285611b65565b509392505050565b5f82601f830112611bc857611bc76119f1565b5b8135611bd8848260208601611b73565b91505092915050565b5f5f5f5f5f60a08688031215611bfa57611bf9611788565b5b5f611c07888289016117d6565b9550506020611c18888289016117d6565b945050604086013567ffffffffffffffff811115611c3957611c3861178c565b5b611c4588828901611b04565b935050606086013567ffffffffffffffff811115611c6657611c6561178c565b5b611c7288828901611b04565b925050608086013567ffffffffffffffff811115611c9357611c9261178c565b5b611c9f88828901611bb4565b9150509295509295909350565b5f5ffd5b5f5f83601f840112611cc557611cc46119f1565b5b8235905067ffffffffffffffff811115611ce257611ce1611cac565b5b602083019150836020820283011115611cfe57611cfd611a98565b5b9250929050565b5f5f83601f840112611d1a57611d196119f1565b5b8235905067ffffffffffffffff811115611d3757611d36611cac565b5b602083019150836020820283011115611d5357611d52611a98565b5b9250929050565b5f5f5f5f60408587031215611d7257611d71611788565b5b5f85013567ffffffffffffffff811115611d8f57611d8e61178c565b5b611d9b87828801611cb0565b9450945050602085013567ffffffffffffffff811115611dbe57611dbd61178c565b5b611dca87828801611d05565b925092505092959194509250565b5f67ffffffffffffffff821115611df257611df16119f5565b5b602082029050602081019050919050565b5f611e15611e1084611dd8565b611a53565b90508083825260208201905060208402830185811115611e3857611e37611a98565b5b835b81811015611e615780611e4d88826117d6565b845260208401935050602081019050611e3a565b5050509392505050565b5f82601f830112611e7f57611e7e6119f1565b5b8135611e8f848260208601611e03565b91505092915050565b5f5f60408385031215611eae57611ead611788565b5b5f83013567ffffffffffffffff811115611ecb57611eca61178c565b5b611ed785828601611e6b565b925050602083013567ffffffffffffffff811115611ef857611ef761178c565b5b611f0485828601611b04565b9150509250929050565b5f81519050919050565b5f82825260208201905092915050565b5f819050602082019050919050565b611f40816117ea565b82525050565b5f611f518383611f37565b60208301905092915050565b5f602082019050919050565b5f611f7382611f0e565b611f7d8185611f18565b9350611f8883611f28565b805f5b83811015611fb8578151611f9f8882611f46565b9750611faa83611f5d565b925050600181019050611f8b565b5085935050505092915050565b5f6020820190508181035f830152611fdd8184611f69565b905092915050565b611fee816117af565b82525050565b5f6020820190506120075f830184611fe5565b92915050565b61201681611903565b8114612020575f5ffd5b50565b5f813590506120318161200d565b92915050565b5f5f6040838503121561204d5761204c611788565b5b5f61205a858286016117d6565b925050602061206b85828601612023565b9150509250929050565b5f5f6040838503121561208b5761208a611788565b5b5f612098858286016117d6565b92505060206120a9858286016117d6565b9150509250929050565b5f5f5f5f5f60a086880312156120cc576120cb611788565b5b5f6120d9888289016117d6565b95505060206120ea888289016117d6565b94505060406120fb88828901611809565b935050606061210c88828901611809565b925050608086013567ffffffffffffffff81111561212d5761212c61178c565b5b61213988828901611bb4565b9150509295509295909350565b5f6020828403121561215b5761215a611788565b5b5f612168848285016117d6565b91505092915050565b7f4e487b71000000000000000000000000000000000000000000000000000000005f52602260045260245ffd5b5f60028204905060018216806121b557607f821691505b6020821081036121c8576121c7612171565b5b50919050565b7f5472616e736665722072657374726963746564000000000000000000000000005f82015250565b5f61220260138361196b565b915061220d826121ce565b602082019050919050565b5f6020820190508181035f83015261222f816121f6565b9050919050565b7f4e487b71000000000000000000000000000000000000000000000000000000005f52603260045260245ffd5b7f546167206e6f7420666f756e64000000000000000000000000000000000000005f82015250565b5f612297600d8361196b565b91506122a282612263565b602082019050919050565b5f6020820190508181035f8301526122c48161228b565b9050919050565b7f54616720616c726561647920696e76616c6964617465640000000000000000005f82015250565b5f6122ff60178361196b565b915061230a826122cb565b602082019050919050565b5f6020820190508181035f83015261232c816122f3565b9050919050565b5f6040820190506123465f83018561185b565b612353602083018461185b565b9392505050565b7f54616720616c72656164792065786973747300000000000000000000000000005f82015250565b5f61238e60128361196b565b91506123998261235a565b602082019050919050565b5f6020820190508181035f8301526123bb81612382565b9050919050565b7f496e76616c6964207461672074797065000000000000000000000000000000005f82015250565b5f6123f660108361196b565b9150612401826123c2565b602082019050919050565b5f6020820190508181035f830152612423816123ea565b9050919050565b5f60808201905061243d5f830187611fe5565b61244a602083018661185b565b612457604083018561185b565b612464606083018461185b565b95945050505050565b7f4e487b71000000000000000000000000000000000000000000000000000000005f52601160045260245ffd5b5f6124a4826117ea565b91506124af836117ea565b92508282019050808211156124c7576124c661246d565b5b92915050565b5f6040820190508181035f8301526124e58185611f69565b905081810360208301526124f98184611f69565b90509392505050565b5f81519050919050565b5f82825260208201905092915050565b5f61252682612502565b612530818561250c565b935061254081856020860161197b565b61254981611989565b840191505092915050565b5f60a0820190506125675f830188611fe5565b6125746020830187611fe5565b612581604083018661185b565b61258e606083018561185b565b81810360808301526125a0818461251c565b90509695505050505050565b5f815190506125ba816118ae565b92915050565b5f602082840312156125d5576125d4611788565b5b5f6125e2848285016125ac565b91505092915050565b5f60a0820190506125fe5f830188611fe5565b61260b6020830187611fe5565b818103604083015261261d8186611f69565b905081810360608301526126318185611f69565b90508181036080830152612645818461251c565b9050969550505050505056fea2646970667358221220c5fb7a4a1bc40589cc54fa657e234fcd076858145d00974e6ebc7778234678c864736f6c634300081b0033","linkReferences":{}},"methodIdentifiers":{"assignTag(address,uint256)":"7672578c","balanceOf(address,uint256)":"00fdd58e","balanceOfBatch(address[],uint256[])":"4e1273f4","invalidateTag(address,uint256)":"481124a6","isApprovedForAll(address,address)":"e985e9c5","owner()":"8da5cb5b","registerTagTypes(uint256[],bytes32[])":"46537313","renounceOwnership()":"715018a6","safeBatchTransferFrom(address,address,uint256[],uint256[],bytes)":"2eb2c2d6","safeTransferFrom(address,address,uint256,uint256,bytes)":"f242432a","setApprovalForAll(address,bool)":"a22cb465","supportsInterface(bytes4)":"01ffc9a7","transferOwnership(address)":"f2fde38b","uri(uint256)":"0e89341c"},"id":41}